{
  "contractName": "MyContract",
  "abi": [
    {
      "constant": true,
      "inputs": [],
      "name": "myBool",
      "outputs": [
        {
          "name": "",
          "type": "bool"
        }
      ],
      "payable": false,
      "stateMutability": "view",
      "type": "function"
    },
    {
      "constant": false,
      "inputs": [
        {
          "name": "_myBool",
          "type": "bool"
        }
      ],
      "name": "setMyBool",
      "outputs": [],
      "payable": false,
      "stateMutability": "nonpayable",
      "type": "function"
    }
  ],
  "bytecode": "0x608060405234801561001057600080fd5b5060e58061001f6000396000f3fe60806040526004361060485763ffffffff7c01000000000000000000000000000000000000000000000000000000006000350416636deecdbe8114604d578063eb1b30d9146073575b600080fd5b348015605857600080fd5b50605f609d565b604080519115158252519081900360200190f35b348015607e57600080fd5b50609b60048036036020811015609357600080fd5b5035151560a6565b005b60005460ff1681565b6000805460ff191691151591909117905556fea165627a7a72305820ec6ad93c666e9508ed89126c3d2fbf305ea3e4a2dcd56b7f4fdb5a70d5690a4e0029",
  "source": "pragma solidity ^0.5.0;\r\n\r\ncontract MyContract {\r\n\r\n    bool public myBool;\r\n\r\n    function setMyBool(bool _myBool) public {\r\n        myBool = _myBool;\r\n    }\r\n\r\n}\r\n",
  "sourcePath": "C:/Users/charlie/Desktop/eth-todo-list/contracts/TodoList.sol",
  "compiler": {
    "name": "solc",
    "version": "0.5.0+commit.1d4f565a.Emscripten.clang"
  },
  "schemaVersion": "3.0.1",
  "updatedAt": "2021-03-09T09:34:29.491Z",
  "devdoc": {
    "methods": {}
  },
  "userdoc": {
    "methods": {}
  }
}